{
  "_format": "hh-sol-artifact-1",
  "contractName": "LSP7DigitalAsset",
  "sourceName": "contracts/LSP7DigitalAsset/LSP7DigitalAsset.sol",
  "abi": [
    {
      "inputs": [
        {
          "internalType": "string",
          "name": "name_",
          "type": "string"
        },
        {
          "internalType": "string",
          "name": "symbol_",
          "type": "string"
        },
        {
          "internalType": "address",
          "name": "newOwner_",
          "type": "address"
        },
        {
          "internalType": "bool",
          "name": "isNFT_",
          "type": "bool"
        }
      ],
      "stateMutability": "nonpayable",
      "type": "constructor"
    },
    {
      "inputs": [],
      "name": "LSP4TokenNameNotEditable",
      "type": "error"
    },
    {
      "inputs": [],
      "name": "LSP4TokenSymbolNotEditable",
      "type": "error"
    },
    {
      "inputs": [
        {
          "internalType": "address",
          "name": "tokenOwner",
          "type": "address"
        },
        {
          "internalType": "uint256",
          "name": "authorizedAmount",
          "type": "uint256"
        },
        {
          "internalType": "address",
          "name": "operator",
          "type": "address"
        },
        {
          "internalType": "uint256",
          "name": "amount",
          "type": "uint256"
        }
      ],
      "name": "LSP7AmountExceedsAuthorizedAmount",
      "type": "error"
    },
    {
      "inputs": [
        {
          "internalType": "uint256",
          "name": "balance",
          "type": "uint256"
        },
        {
          "internalType": "address",
          "name": "tokenOwner",
          "type": "address"
        },
        {
          "internalType": "uint256",
          "name": "amount",
          "type": "uint256"
        }
      ],
      "name": "LSP7AmountExceedsBalance",
      "type": "error"
    },
    {
      "inputs": [],
      "name": "LSP7CannotSendWithAddressZero",
      "type": "error"
    },
    {
      "inputs": [],
      "name": "LSP7CannotUseAddressZeroAsOperator",
      "type": "error"
    },
    {
      "inputs": [],
      "name": "LSP7InvalidTransferBatch",
      "type": "error"
    },
    {
      "inputs": [
        {
          "internalType": "address",
          "name": "tokenReceiver",
          "type": "address"
        }
      ],
      "name": "LSP7NotifyTokenReceiverContractMissingLSP1Interface",
      "type": "error"
    },
    {
      "inputs": [
        {
          "internalType": "address",
          "name": "tokenReceiver",
          "type": "address"
        }
      ],
      "name": "LSP7NotifyTokenReceiverIsEOA",
      "type": "error"
    },
    {
      "anonymous": false,
      "inputs": [
        {
          "indexed": true,
          "internalType": "address",
          "name": "operator",
          "type": "address"
        },
        {
          "indexed": true,
          "internalType": "address",
          "name": "tokenOwner",
          "type": "address"
        },
        {
          "indexed": true,
          "internalType": "uint256",
          "name": "amount",
          "type": "uint256"
        }
      ],
      "name": "AuthorizedOperator",
      "type": "event"
    },
    {
      "anonymous": false,
      "inputs": [
        {
          "indexed": true,
          "internalType": "bytes32",
          "name": "dataKey",
          "type": "bytes32"
        }
      ],
      "name": "DataChanged",
      "type": "event"
    },
    {
      "anonymous": false,
      "inputs": [
        {
          "indexed": true,
          "internalType": "address",
          "name": "previousOwner",
          "type": "address"
        },
        {
          "indexed": true,
          "internalType": "address",
          "name": "newOwner",
          "type": "address"
        }
      ],
      "name": "OwnershipTransferred",
      "type": "event"
    },
    {
      "anonymous": false,
      "inputs": [
        {
          "indexed": true,
          "internalType": "address",
          "name": "operator",
          "type": "address"
        },
        {
          "indexed": true,
          "internalType": "address",
          "name": "tokenOwner",
          "type": "address"
        }
      ],
      "name": "RevokedOperator",
      "type": "event"
    },
    {
      "anonymous": false,
      "inputs": [
        {
          "indexed": true,
          "internalType": "address",
          "name": "operator",
          "type": "address"
        },
        {
          "indexed": true,
          "internalType": "address",
          "name": "from",
          "type": "address"
        },
        {
          "indexed": true,
          "internalType": "address",
          "name": "to",
          "type": "address"
        },
        {
          "indexed": false,
          "internalType": "uint256",
          "name": "amount",
          "type": "uint256"
        },
        {
          "indexed": false,
          "internalType": "bool",
          "name": "force",
          "type": "bool"
        },
        {
          "indexed": false,
          "internalType": "bytes",
          "name": "data",
          "type": "bytes"
        }
      ],
      "name": "Transfer",
      "type": "event"
    },
    {
      "inputs": [
        {
          "internalType": "address",
          "name": "operator",
          "type": "address"
        },
        {
          "internalType": "uint256",
          "name": "amount",
          "type": "uint256"
        }
      ],
      "name": "authorizeOperator",
      "outputs": [],
      "stateMutability": "nonpayable",
      "type": "function"
    },
    {
      "inputs": [
        {
          "internalType": "address",
          "name": "tokenOwner",
          "type": "address"
        }
      ],
      "name": "balanceOf",
      "outputs": [
        {
          "internalType": "uint256",
          "name": "",
          "type": "uint256"
        }
      ],
      "stateMutability": "view",
      "type": "function"
    },
    {
      "inputs": [],
      "name": "decimals",
      "outputs": [
        {
          "internalType": "uint256",
          "name": "",
          "type": "uint256"
        }
      ],
      "stateMutability": "view",
      "type": "function"
    },
    {
      "inputs": [
        {
          "internalType": "bytes32[]",
          "name": "dataKeys",
          "type": "bytes32[]"
        }
      ],
      "name": "getData",
      "outputs": [
        {
          "internalType": "bytes[]",
          "name": "dataValues",
          "type": "bytes[]"
        }
      ],
      "stateMutability": "view",
      "type": "function"
    },
    {
      "inputs": [
        {
          "internalType": "bytes32",
          "name": "dataKey",
          "type": "bytes32"
        }
      ],
      "name": "getData",
      "outputs": [
        {
          "internalType": "bytes",
          "name": "dataValue",
          "type": "bytes"
        }
      ],
      "stateMutability": "view",
      "type": "function"
    },
    {
      "inputs": [
        {
          "internalType": "address",
          "name": "operator",
          "type": "address"
        },
        {
          "internalType": "address",
          "name": "tokenOwner",
          "type": "address"
        }
      ],
      "name": "isOperatorFor",
      "outputs": [
        {
          "internalType": "uint256",
          "name": "",
          "type": "uint256"
        }
      ],
      "stateMutability": "view",
      "type": "function"
    },
    {
      "inputs": [],
      "name": "owner",
      "outputs": [
        {
          "internalType": "address",
          "name": "",
          "type": "address"
        }
      ],
      "stateMutability": "view",
      "type": "function"
    },
    {
      "inputs": [],
      "name": "renounceOwnership",
      "outputs": [],
      "stateMutability": "nonpayable",
      "type": "function"
    },
    {
      "inputs": [
        {
          "internalType": "address",
          "name": "operator",
          "type": "address"
        }
      ],
      "name": "revokeOperator",
      "outputs": [],
      "stateMutability": "nonpayable",
      "type": "function"
    },
    {
      "inputs": [
        {
          "internalType": "bytes32[]",
          "name": "dataKeys",
          "type": "bytes32[]"
        },
        {
          "internalType": "bytes[]",
          "name": "dataValues",
          "type": "bytes[]"
        }
      ],
      "name": "setData",
      "outputs": [],
      "stateMutability": "nonpayable",
      "type": "function"
    },
    {
      "inputs": [
        {
          "internalType": "bytes32",
          "name": "dataKey",
          "type": "bytes32"
        },
        {
          "internalType": "bytes",
          "name": "dataValue",
          "type": "bytes"
        }
      ],
      "name": "setData",
      "outputs": [],
      "stateMutability": "nonpayable",
      "type": "function"
    },
    {
      "inputs": [
        {
          "internalType": "bytes4",
          "name": "interfaceId",
          "type": "bytes4"
        }
      ],
      "name": "supportsInterface",
      "outputs": [
        {
          "internalType": "bool",
          "name": "",
          "type": "bool"
        }
      ],
      "stateMutability": "view",
      "type": "function"
    },
    {
      "inputs": [],
      "name": "totalSupply",
      "outputs": [
        {
          "internalType": "uint256",
          "name": "",
          "type": "uint256"
        }
      ],
      "stateMutability": "view",
      "type": "function"
    },
    {
      "inputs": [
        {
          "internalType": "address",
          "name": "from",
          "type": "address"
        },
        {
          "internalType": "address",
          "name": "to",
          "type": "address"
        },
        {
          "internalType": "uint256",
          "name": "amount",
          "type": "uint256"
        },
        {
          "internalType": "bool",
          "name": "force",
          "type": "bool"
        },
        {
          "internalType": "bytes",
          "name": "data",
          "type": "bytes"
        }
      ],
      "name": "transfer",
      "outputs": [],
      "stateMutability": "nonpayable",
      "type": "function"
    },
    {
      "inputs": [
        {
          "internalType": "address[]",
          "name": "from",
          "type": "address[]"
        },
        {
          "internalType": "address[]",
          "name": "to",
          "type": "address[]"
        },
        {
          "internalType": "uint256[]",
          "name": "amount",
          "type": "uint256[]"
        },
        {
          "internalType": "bool",
          "name": "force",
          "type": "bool"
        },
        {
          "internalType": "bytes[]",
          "name": "data",
          "type": "bytes[]"
        }
      ],
      "name": "transferBatch",
      "outputs": [],
      "stateMutability": "nonpayable",
      "type": "function"
    },
    {
      "inputs": [
        {
          "internalType": "address",
          "name": "newOwner",
          "type": "address"
        }
      ],
      "name": "transferOwnership",
      "outputs": [],
      "stateMutability": "nonpayable",
      "type": "function"
    }
  ],
  "bytecode": "0x60806040523480156200001157600080fd5b5060405162001e1738038062001e1783398101604081905262000034916200034d565b838383806200004e816200013860201b620007441760201c565b50620000a57feafec4d89fa9619884b60000a4d96624a38f7ac2d8d9a604ecf07c12c77e480c60001b604051806040016040528060048152602001632936598960e21b8152506200019f60201b620007c11760201c565b620000df7fdeba1e292f8ba88238e10ab3c7f88bd4be4fac56cad5194b6ecceaf653468af160001b846200019f60201b620007c11760201c565b620001197f2f0a68ab07768e01943a599e73362a0e17a63a72e94dd2e384d2c1d4db93275660001b836200019f60201b620007c11760201c565b50506002805460ff191692151592909217909155506200044592505050565b6000546001600160a01b038281169116146200019c57600080546001600160a01b038381166001600160a01b0319831681178455604051919092169283917f8be0079c531659141344cd1fd0a4f28419497f9722a3daafe3b4186f6b6457e09190a3505b50565b60008281526001602090815260409091208251620001c092840190620001f0565b5060405182907fcdf4e344c0d23d4cdd0474039d176c55b19d531070dbe17856bfb993a5b5720b90600090a25050565b828054620001fe90620003f2565b90600052602060002090601f0160209004810192826200022257600085556200026d565b82601f106200023d57805160ff19168380011785556200026d565b828001600101855582156200026d579182015b828111156200026d57825182559160200191906001019062000250565b506200027b9291506200027f565b5090565b5b808211156200027b576000815560010162000280565b600082601f830112620002a857600080fd5b81516001600160401b0380821115620002c557620002c56200042f565b604051601f8301601f19908116603f01168101908282118183101715620002f057620002f06200042f565b816040528381526020925086838588010111156200030d57600080fd5b600091505b8382101562000331578582018301518183018401529082019062000312565b83821115620003435760008385830101525b9695505050505050565b600080600080608085870312156200036457600080fd5b84516001600160401b03808211156200037c57600080fd5b6200038a8883890162000296565b95506020870151915080821115620003a157600080fd5b50620003b08782880162000296565b604087015190945090506001600160a01b0381168114620003d057600080fd5b60608601519092508015158114620003e757600080fd5b939692955090935050565b600181811c908216806200040757607f821691505b602082108114156200042957634e487b7160e01b600052602260045260246000fd5b50919050565b634e487b7160e01b600052604160045260246000fd5b6119c280620004556000396000f3fe608060405234801561001057600080fd5b50600436106101005760003560e01c8063715018a611610097578063a8a34e0a11610066578063a8a34e0a14610221578063d95b637114610234578063f2fde38b14610247578063fad8b32a1461025a57600080fd5b8063715018a6146101d8578063760d9bba146101e05780637f23690c146101f35780638da5cb5b1461020657600080fd5b806347980aa3116100d357806347980aa31461015c5780634e3e6e9c1461016f57806354f6127f1461018f57806370a08231146101af57600080fd5b806301ffc9a71461010557806314a6e2931461012d57806318160ddd14610142578063313ce56714610154575b600080fd5b61011861011336600461162f565b61026d565b60405190151581526020015b60405180910390f35b61014061013b366004611558565b6102b1565b005b6003545b604051908152602001610124565b61014661038a565b61014061016a3660046113e5565b6103a9565b61018261017d36600461151b565b6103b8565b6040516101249190611765565b6101a261019d3660046115d9565b61046c565b60405161012491906117e0565b6101466101bd366004611315565b6001600160a01b031660009081526004602052604090205490565b610140610477565b6101406101ee36600461136a565b61048b565b6101406102013660046115f2565b610548565b6000546040516001600160a01b039091168152602001610124565b61014061022f36600461140f565b61055a565b610146610242366004611337565b610640565b610140610255366004611315565b6106a8565b610140610268366004611315565b610738565b60006001600160e01b031982167fe33f65c30000000000000000000000000000000000000000000000000000000014806102ab57506102ab82610810565b92915050565b6102b961085e565b80518251146103355760405162461bcd60e51b815260206004820152602660248201527f4b657973206c656e677468206e6f7420657175616c20746f2076616c7565732060448201527f6c656e677468000000000000000000000000000000000000000000000000000060648201526084015b60405180910390fd5b60005b82518110156103855761037d83828151811061035657610356611952565b602002602001015183838151811061037057610370611952565b60200260200101516108c7565b600101610338565b505050565b60025460009060ff1661039e5760126103a1565b60005b60ff16905090565b6103b4338383610985565b5050565b6060815167ffffffffffffffff8111156103d4576103d4611968565b60405190808252806020026020018201604052801561040757816020015b60608152602001906001900390816103f25790505b50905060005b82518110156104665761043883828151811061042b5761042b611952565b6020026020010151610a9d565b82828151811061044a5761044a611952565b602002602001018190525061045f8160010190565b905061040d565b50919050565b60606102ab82610a9d565b61047f61085e565b6104896000610744565b565b336001600160a01b0386168114610533576001600160a01b038087166000908152600560209081526040808320938516835292905220548085111561051d576040517ff3a6b6910000000000000000000000000000000000000000000000000000000081526001600160a01b03808916600483015260248201839052831660448201526064810186905260840161032c565b610531878361052c88856118a9565b610985565b505b6105408686868686610b3f565b505050505050565b61055061085e565b6103b482826108c7565b8351855114158061056d57508251855114155b8061057a57508051855114155b156105b1576040517f263eee8d00000000000000000000000000000000000000000000000000000000815260040160405180910390fd5b60005b85518110156105405761062e8682815181106105d2576105d2611952565b60200260200101518683815181106105ec576105ec611952565b602002602001015186848151811061060657610606611952565b60200260200101518686868151811061062157610621611952565b602002602001015161048b565b8061063881611921565b9150506105b4565b6000826001600160a01b0316826001600160a01b0316141561067b57506001600160a01b0381166000908152600460205260409020546102ab565b506001600160a01b0380821660009081526005602090815260408083209386168352929052205492915050565b6106b061085e565b6001600160a01b03811661072c5760405162461bcd60e51b815260206004820152602660248201527f4f776e61626c653a206e6577206f776e657220697320746865207a65726f206160448201527f6464726573730000000000000000000000000000000000000000000000000000606482015260840161032c565b61073581610744565b50565b61073533826000610985565b6000546001600160a01b0382811691161461073557600080546001600160a01b038381167fffffffffffffffffffffffff0000000000000000000000000000000000000000831681178455604051919092169283917f8be0079c531659141344cd1fd0a4f28419497f9722a3daafe3b4186f6b6457e09190a35050565b600082815260016020908152604090912082516107e092840190611099565b5060405182907fcdf4e344c0d23d4cdd0474039d176c55b19d531070dbe17856bfb993a5b5720b90600090a25050565b60006001600160e01b031982167f714df77c0000000000000000000000000000000000000000000000000000000014806102ab57506301ffc9a760e01b6001600160e01b03198316146102ab565b336108716000546001600160a01b031690565b6001600160a01b0316146104895760405162461bcd60e51b815260206004820181905260248201527f4f776e61626c653a2063616c6c6572206973206e6f7420746865206f776e6572604482015260640161032c565b7fdeba1e292f8ba88238e10ab3c7f88bd4be4fac56cad5194b6ecceaf653468af1821415610921576040517f85c169bd00000000000000000000000000000000000000000000000000000000815260040160405180910390fd5b7f2f0a68ab07768e01943a599e73362a0e17a63a72e94dd2e384d2c1d4db93275682141561097b576040517f76755b3800000000000000000000000000000000000000000000000000000000815260040160405180910390fd5b6103b482826107c1565b6001600160a01b0382166109c5576040517f6355e76600000000000000000000000000000000000000000000000000000000815260040160405180910390fd5b826001600160a01b0316826001600160a01b031614156109e457505050565b6001600160a01b0380841660009081526005602090815260408083209386168352929052208190558015610a585780836001600160a01b0316836001600160a01b03167fd66aff874162a96578e919097b6f6d153dfd89a5cec41bb331fdb0c4aec16e2c60405160405180910390a4505050565b826001600160a01b0316826001600160a01b03167f50546e66e5f44d728365dc3908c63bc5cfeeab470722c1677e3073a6ac294aa160405160405180910390a3505050565b6000818152600160205260409020805460609190610aba906118ec565b80601f0160208091040260200160405190810160405280929190818152602001828054610ae6906118ec565b8015610b335780601f10610b0857610100808354040283529160200191610b33565b820191906000526020600020905b815481529060010190602001808311610b1657829003601f168201915b50505050509050919050565b6001600160a01b0385161580610b5c57506001600160a01b038416155b15610b93576040517fd2d5ec3000000000000000000000000000000000000000000000000000000000815260040160405180910390fd5b6001600160a01b03851660009081526004602052604090205480841115610bff576040517f08d47949000000000000000000000000000000000000000000000000000000008152600481018290526001600160a01b03871660248201526044810185905260640161032c565b33610c0b878787610ce2565b6001600160a01b03871660009081526004602052604081208054879290610c339084906118a9565b90915550506001600160a01b03861660009081526004602052604081208054879290610c60908490611891565b92505081905550856001600160a01b0316876001600160a01b0316826001600160a01b03167f3997e418d2cef0b3b0e907b1e39605c3f7d32dbd061e82ea5b4a770d46a160a6888888604051610cb8939291906117f3565b60405180910390a4610ccc87878786610d32565b610cd98787878787610e1b565b50505050505050565b6001600160a01b038316610d08578060036000828254610d029190611891565b90915550505b6001600160a01b038216610385578060036000828254610d2891906118a9565b9091555050505050565b610d4384631aed5a8560e21b610f9b565b15610e1557600084848484604051602001610d6194939291906116fc565b60408051601f1981840301815290829052631aed5a8560e21b825291506001600160a01b03861690636bb56a1490610dbf907f40b8bec57d7b5ff0dbd9e9acd0a47dfeb0101e1a203766f5ccab00445fbf39e99085906004016117c7565b600060405180830381600087803b158015610dd957600080fd5b505af1158015610ded573d6000803e3d6000fd5b505050506040513d6000823e601f3d908101601f191682016040526105409190810190611659565b50505050565b610e2c84631aed5a8560e21b610f9b565b15610f0557600085858584604051602001610e4a94939291906116fc565b60408051601f1981840301815290829052631aed5a8560e21b825291506001600160a01b03861690636bb56a1490610ea8907fdbe2c314e1aee2970c72666f2ebe8933a8575263ea71e5ff6a9178e95d47a26f9085906004016117c7565b600060405180830381600087803b158015610ec257600080fd5b505af1158015610ed6573d6000803e3d6000fd5b505050506040513d6000823e601f3d908101601f19168201604052610efe9190810190611659565b5050610f94565b81610f94576001600160a01b0384163b15610f57576040517fa608fbb60000000000000000000000000000000000000000000000000000000081526001600160a01b038516600482015260240161032c565b6040517f26c247f40000000000000000000000000000000000000000000000000000000081526001600160a01b038516600482015260240161032c565b5050505050565b604080516001600160e01b0319831660248083019190915282518083039091018152604490910182526020810180517bffffffffffffffffffffffffffffffffffffffffffffffffffffffff166301ffc9a760e01b179052905160009190829081906001600160a01b0387169061753090611017908690611749565b6000604051808303818686fa925050503d8060008114611053576040519150601f19603f3d011682016040523d82523d6000602084013e611058565b606091505b509150915060208151101561107357600093505050506102ab565b81801561108f57508080602001905181019061108f91906115bc565b9695505050505050565b8280546110a5906118ec565b90600052602060002090601f0160209004810192826110c7576000855561110d565b82601f106110e057805160ff191683800117855561110d565b8280016001018555821561110d579182015b8281111561110d5782518255916020019190600101906110f2565b5061111992915061111d565b5090565b5b80821115611119576000815560010161111e565b80356001600160a01b038116811461114957600080fd5b919050565b600082601f83011261115f57600080fd5b8135602061117461116f83611845565b611814565b80838252828201915082860187848660051b890101111561119457600080fd5b60005b858110156111ba576111a882611132565b84529284019290840190600101611197565b5090979650505050505050565b600082601f8301126111d857600080fd5b813560206111e861116f83611845565b80838252828201915082860187848660051b890101111561120857600080fd5b60005b858110156111ba5781358452928401929084019060010161120b565b600082601f83011261123857600080fd5b8135602061124861116f83611845565b80838252828201915082860187848660051b890101111561126857600080fd5b6000805b868110156112ab57823567ffffffffffffffff81111561128a578283fd5b6112988b88838d01016112c4565b865250938501939185019160010161126c565b509198975050505050505050565b80356111498161197e565b600082601f8301126112d557600080fd5b81356112e361116f82611869565b8181528460208386010111156112f857600080fd5b816020850160208301376000918101602001919091529392505050565b60006020828403121561132757600080fd5b61133082611132565b9392505050565b6000806040838503121561134a57600080fd5b61135383611132565b915061136160208401611132565b90509250929050565b600080600080600060a0868803121561138257600080fd5b61138b86611132565b945061139960208701611132565b93506040860135925060608601356113b08161197e565b9150608086013567ffffffffffffffff8111156113cc57600080fd5b6113d8888289016112c4565b9150509295509295909350565b600080604083850312156113f857600080fd5b61140183611132565b946020939093013593505050565b600080600080600060a0868803121561142757600080fd5b853567ffffffffffffffff8082111561143f57600080fd5b61144b89838a0161114e565b965060209150818801358181111561146257600080fd5b61146e8a828b0161114e565b96505060408801358181111561148357600080fd5b8801601f81018a1361149457600080fd5b80356114a261116f82611845565b8082825285820191508584018d878560051b87010111156114c257600080fd5b600094505b838510156114e55780358352600194909401939186019186016114c7565b5097506114f892505050606089016112b9565b9350608088013591508082111561150e57600080fd5b506113d888828901611227565b60006020828403121561152d57600080fd5b813567ffffffffffffffff81111561154457600080fd5b611550848285016111c7565b949350505050565b6000806040838503121561156b57600080fd5b823567ffffffffffffffff8082111561158357600080fd5b61158f868387016111c7565b935060208501359150808211156115a557600080fd5b506115b285828601611227565b9150509250929050565b6000602082840312156115ce57600080fd5b81516113308161197e565b6000602082840312156115eb57600080fd5b5035919050565b6000806040838503121561160557600080fd5b82359150602083013567ffffffffffffffff81111561162357600080fd5b6115b2858286016112c4565b60006020828403121561164157600080fd5b81356001600160e01b03198116811461133057600080fd5b60006020828403121561166b57600080fd5b815167ffffffffffffffff81111561168257600080fd5b8201601f8101841361169357600080fd5b80516116a161116f82611869565b8181528560208385010111156116b657600080fd5b6116c78260208301602086016118c0565b95945050505050565b600081518084526116e88160208601602086016118c0565b601f01601f19169290920160200192915050565b60006bffffffffffffffffffffffff19808760601b168352808660601b1660148401525083602883015282516117398160488501602087016118c0565b9190910160480195945050505050565b6000825161175b8184602087016118c0565b9190910192915050565b6000602080830181845280855180835260408601915060408160051b870101925083870160005b828110156117ba57603f198886030184526117a88583516116d0565b9450928501929085019060010161178c565b5092979650505050505050565b82815260406020820152600061155060408301846116d0565b60208152600061133060208301846116d0565b83815282151560208201526060604082015260006116c760608301846116d0565b604051601f8201601f1916810167ffffffffffffffff8111828210171561183d5761183d611968565b604052919050565b600067ffffffffffffffff82111561185f5761185f611968565b5060051b60200190565b600067ffffffffffffffff82111561188357611883611968565b50601f01601f191660200190565b600082198211156118a4576118a461193c565b500190565b6000828210156118bb576118bb61193c565b500390565b60005b838110156118db5781810151838201526020016118c3565b83811115610e155750506000910152565b600181811c9082168061190057607f821691505b6020821081141561046657634e487b7160e01b600052602260045260246000fd5b60006000198214156119355761193561193c565b5060010190565b634e487b7160e01b600052601160045260246000fd5b634e487b7160e01b600052603260045260246000fd5b634e487b7160e01b600052604160045260246000fd5b801515811461073557600080fdfea264697066735822122014f96602b97991c1de7da2d5cc067941ea0faa3b35d7973b113b17a19d1f2ad764736f6c63430008070033",
  "linkReferences": {},
  "deployedLinkReferences": {}
}