{
  "_format": "hh-sol-artifact-1",
  "contractName": "LSP8IdentifiableDigitalAsset",
  "sourceName": "contracts/LSP8IdentifiableDigitalAsset/LSP8IdentifiableDigitalAsset.sol",
  "abi": [
    {
      "inputs": [
        {
          "internalType": "string",
          "name": "name_",
          "type": "string"
        },
        {
          "internalType": "string",
          "name": "symbol_",
          "type": "string"
        },
        {
          "internalType": "address",
          "name": "newOwner_",
          "type": "address"
        }
      ],
      "stateMutability": "nonpayable",
      "type": "constructor"
    },
    {
      "inputs": [],
      "name": "LSP4TokenNameNotEditable",
      "type": "error"
    },
    {
      "inputs": [],
      "name": "LSP4TokenSymbolNotEditable",
      "type": "error"
    },
    {
      "inputs": [],
      "name": "LSP8CannotSendToAddressZero",
      "type": "error"
    },
    {
      "inputs": [],
      "name": "LSP8CannotUseAddressZeroAsOperator",
      "type": "error"
    },
    {
      "inputs": [],
      "name": "LSP8InvalidTransferBatch",
      "type": "error"
    },
    {
      "inputs": [
        {
          "internalType": "bytes32",
          "name": "tokenId",
          "type": "bytes32"
        }
      ],
      "name": "LSP8NonExistentTokenId",
      "type": "error"
    },
    {
      "inputs": [
        {
          "internalType": "bytes32",
          "name": "tokenId",
          "type": "bytes32"
        },
        {
          "internalType": "address",
          "name": "caller",
          "type": "address"
        }
      ],
      "name": "LSP8NotTokenOperator",
      "type": "error"
    },
    {
      "inputs": [
        {
          "internalType": "address",
          "name": "tokenOwner",
          "type": "address"
        },
        {
          "internalType": "bytes32",
          "name": "tokenId",
          "type": "bytes32"
        },
        {
          "internalType": "address",
          "name": "caller",
          "type": "address"
        }
      ],
      "name": "LSP8NotTokenOwner",
      "type": "error"
    },
    {
      "inputs": [
        {
          "internalType": "address",
          "name": "tokenReceiver",
          "type": "address"
        }
      ],
      "name": "LSP8NotifyTokenReceiverContractMissingLSP1Interface",
      "type": "error"
    },
    {
      "inputs": [
        {
          "internalType": "address",
          "name": "tokenReceiver",
          "type": "address"
        }
      ],
      "name": "LSP8NotifyTokenReceiverIsEOA",
      "type": "error"
    },
    {
      "anonymous": false,
      "inputs": [
        {
          "indexed": true,
          "internalType": "address",
          "name": "operator",
          "type": "address"
        },
        {
          "indexed": true,
          "internalType": "address",
          "name": "tokenOwner",
          "type": "address"
        },
        {
          "indexed": true,
          "internalType": "bytes32",
          "name": "tokenId",
          "type": "bytes32"
        }
      ],
      "name": "AuthorizedOperator",
      "type": "event"
    },
    {
      "anonymous": false,
      "inputs": [
        {
          "indexed": true,
          "internalType": "bytes32",
          "name": "dataKey",
          "type": "bytes32"
        }
      ],
      "name": "DataChanged",
      "type": "event"
    },
    {
      "anonymous": false,
      "inputs": [
        {
          "indexed": true,
          "internalType": "address",
          "name": "previousOwner",
          "type": "address"
        },
        {
          "indexed": true,
          "internalType": "address",
          "name": "newOwner",
          "type": "address"
        }
      ],
      "name": "OwnershipTransferred",
      "type": "event"
    },
    {
      "anonymous": false,
      "inputs": [
        {
          "indexed": true,
          "internalType": "address",
          "name": "operator",
          "type": "address"
        },
        {
          "indexed": true,
          "internalType": "address",
          "name": "tokenOwner",
          "type": "address"
        },
        {
          "indexed": true,
          "internalType": "bytes32",
          "name": "tokenId",
          "type": "bytes32"
        }
      ],
      "name": "RevokedOperator",
      "type": "event"
    },
    {
      "anonymous": false,
      "inputs": [
        {
          "indexed": false,
          "internalType": "address",
          "name": "operator",
          "type": "address"
        },
        {
          "indexed": true,
          "internalType": "address",
          "name": "from",
          "type": "address"
        },
        {
          "indexed": true,
          "internalType": "address",
          "name": "to",
          "type": "address"
        },
        {
          "indexed": true,
          "internalType": "bytes32",
          "name": "tokenId",
          "type": "bytes32"
        },
        {
          "indexed": false,
          "internalType": "bool",
          "name": "force",
          "type": "bool"
        },
        {
          "indexed": false,
          "internalType": "bytes",
          "name": "data",
          "type": "bytes"
        }
      ],
      "name": "Transfer",
      "type": "event"
    },
    {
      "inputs": [
        {
          "internalType": "address",
          "name": "operator",
          "type": "address"
        },
        {
          "internalType": "bytes32",
          "name": "tokenId",
          "type": "bytes32"
        }
      ],
      "name": "authorizeOperator",
      "outputs": [],
      "stateMutability": "nonpayable",
      "type": "function"
    },
    {
      "inputs": [
        {
          "internalType": "address",
          "name": "tokenOwner",
          "type": "address"
        }
      ],
      "name": "balanceOf",
      "outputs": [
        {
          "internalType": "uint256",
          "name": "",
          "type": "uint256"
        }
      ],
      "stateMutability": "view",
      "type": "function"
    },
    {
      "inputs": [
        {
          "internalType": "bytes32[]",
          "name": "dataKeys",
          "type": "bytes32[]"
        }
      ],
      "name": "getData",
      "outputs": [
        {
          "internalType": "bytes[]",
          "name": "dataValues",
          "type": "bytes[]"
        }
      ],
      "stateMutability": "view",
      "type": "function"
    },
    {
      "inputs": [
        {
          "internalType": "bytes32",
          "name": "dataKey",
          "type": "bytes32"
        }
      ],
      "name": "getData",
      "outputs": [
        {
          "internalType": "bytes",
          "name": "dataValue",
          "type": "bytes"
        }
      ],
      "stateMutability": "view",
      "type": "function"
    },
    {
      "inputs": [
        {
          "internalType": "bytes32",
          "name": "tokenId",
          "type": "bytes32"
        }
      ],
      "name": "getOperatorsOf",
      "outputs": [
        {
          "internalType": "address[]",
          "name": "",
          "type": "address[]"
        }
      ],
      "stateMutability": "view",
      "type": "function"
    },
    {
      "inputs": [
        {
          "internalType": "address",
          "name": "operator",
          "type": "address"
        },
        {
          "internalType": "bytes32",
          "name": "tokenId",
          "type": "bytes32"
        }
      ],
      "name": "isOperatorFor",
      "outputs": [
        {
          "internalType": "bool",
          "name": "",
          "type": "bool"
        }
      ],
      "stateMutability": "view",
      "type": "function"
    },
    {
      "inputs": [],
      "name": "owner",
      "outputs": [
        {
          "internalType": "address",
          "name": "",
          "type": "address"
        }
      ],
      "stateMutability": "view",
      "type": "function"
    },
    {
      "inputs": [],
      "name": "renounceOwnership",
      "outputs": [],
      "stateMutability": "nonpayable",
      "type": "function"
    },
    {
      "inputs": [
        {
          "internalType": "address",
          "name": "operator",
          "type": "address"
        },
        {
          "internalType": "bytes32",
          "name": "tokenId",
          "type": "bytes32"
        }
      ],
      "name": "revokeOperator",
      "outputs": [],
      "stateMutability": "nonpayable",
      "type": "function"
    },
    {
      "inputs": [
        {
          "internalType": "bytes32[]",
          "name": "dataKeys",
          "type": "bytes32[]"
        },
        {
          "internalType": "bytes[]",
          "name": "dataValues",
          "type": "bytes[]"
        }
      ],
      "name": "setData",
      "outputs": [],
      "stateMutability": "nonpayable",
      "type": "function"
    },
    {
      "inputs": [
        {
          "internalType": "bytes32",
          "name": "dataKey",
          "type": "bytes32"
        },
        {
          "internalType": "bytes",
          "name": "dataValue",
          "type": "bytes"
        }
      ],
      "name": "setData",
      "outputs": [],
      "stateMutability": "nonpayable",
      "type": "function"
    },
    {
      "inputs": [
        {
          "internalType": "bytes4",
          "name": "interfaceId",
          "type": "bytes4"
        }
      ],
      "name": "supportsInterface",
      "outputs": [
        {
          "internalType": "bool",
          "name": "",
          "type": "bool"
        }
      ],
      "stateMutability": "view",
      "type": "function"
    },
    {
      "inputs": [
        {
          "internalType": "address",
          "name": "tokenOwner",
          "type": "address"
        }
      ],
      "name": "tokenIdsOf",
      "outputs": [
        {
          "internalType": "bytes32[]",
          "name": "",
          "type": "bytes32[]"
        }
      ],
      "stateMutability": "view",
      "type": "function"
    },
    {
      "inputs": [
        {
          "internalType": "bytes32",
          "name": "tokenId",
          "type": "bytes32"
        }
      ],
      "name": "tokenOwnerOf",
      "outputs": [
        {
          "internalType": "address",
          "name": "",
          "type": "address"
        }
      ],
      "stateMutability": "view",
      "type": "function"
    },
    {
      "inputs": [],
      "name": "totalSupply",
      "outputs": [
        {
          "internalType": "uint256",
          "name": "",
          "type": "uint256"
        }
      ],
      "stateMutability": "view",
      "type": "function"
    },
    {
      "inputs": [
        {
          "internalType": "address",
          "name": "from",
          "type": "address"
        },
        {
          "internalType": "address",
          "name": "to",
          "type": "address"
        },
        {
          "internalType": "bytes32",
          "name": "tokenId",
          "type": "bytes32"
        },
        {
          "internalType": "bool",
          "name": "force",
          "type": "bool"
        },
        {
          "internalType": "bytes",
          "name": "data",
          "type": "bytes"
        }
      ],
      "name": "transfer",
      "outputs": [],
      "stateMutability": "nonpayable",
      "type": "function"
    },
    {
      "inputs": [
        {
          "internalType": "address[]",
          "name": "from",
          "type": "address[]"
        },
        {
          "internalType": "address[]",
          "name": "to",
          "type": "address[]"
        },
        {
          "internalType": "bytes32[]",
          "name": "tokenId",
          "type": "bytes32[]"
        },
        {
          "internalType": "bool",
          "name": "force",
          "type": "bool"
        },
        {
          "internalType": "bytes[]",
          "name": "data",
          "type": "bytes[]"
        }
      ],
      "name": "transferBatch",
      "outputs": [],
      "stateMutability": "nonpayable",
      "type": "function"
    },
    {
      "inputs": [
        {
          "internalType": "address",
          "name": "newOwner",
          "type": "address"
        }
      ],
      "name": "transferOwnership",
      "outputs": [],
      "stateMutability": "nonpayable",
      "type": "function"
    }
  ],
  "bytecode": "0x60806040523480156200001157600080fd5b50604051620022213803806200222183398101604081905262000034916200033a565b828282806200004e816200012560201b620009271760201c565b50620000a57feafec4d89fa9619884b60000a4d96624a38f7ac2d8d9a604ecf07c12c77e480c60001b604051806040016040528060048152602001632936598960e21b8152506200018c60201b620009991760201c565b620000df7fdeba1e292f8ba88238e10ab3c7f88bd4be4fac56cad5194b6ecceaf653468af160001b846200018c60201b620009991760201c565b620001197f2f0a68ab07768e01943a599e73362a0e17a63a72e94dd2e384d2c1d4db93275660001b836200018c60201b620009991760201c565b5050505050506200041a565b6000546001600160a01b038281169116146200018957600080546001600160a01b038381166001600160a01b0319831681178455604051919092169283917f8be0079c531659141344cd1fd0a4f28419497f9722a3daafe3b4186f6b6457e09190a3505b50565b60008281526001602090815260409091208251620001ad92840190620001dd565b5060405182907fcdf4e344c0d23d4cdd0474039d176c55b19d531070dbe17856bfb993a5b5720b90600090a25050565b828054620001eb90620003c7565b90600052602060002090601f0160209004810192826200020f57600085556200025a565b82601f106200022a57805160ff19168380011785556200025a565b828001600101855582156200025a579182015b828111156200025a5782518255916020019190600101906200023d565b50620002689291506200026c565b5090565b5b808211156200026857600081556001016200026d565b600082601f8301126200029557600080fd5b81516001600160401b0380821115620002b257620002b262000404565b604051601f8301601f19908116603f01168101908282118183101715620002dd57620002dd62000404565b81604052838152602092508683858801011115620002fa57600080fd5b600091505b838210156200031e5785820183015181830184015290820190620002ff565b83821115620003305760008385830101525b9695505050505050565b6000806000606084860312156200035057600080fd5b83516001600160401b03808211156200036857600080fd5b620003768783880162000283565b945060208601519150808211156200038d57600080fd5b506200039c8682870162000283565b604086015190935090506001600160a01b0381168114620003bc57600080fd5b809150509250925092565b600181811c90821680620003dc57607f821691505b60208210811415620003fe57634e487b7160e01b600052602260045260246000fd5b50919050565b634e487b7160e01b600052604160045260246000fd5b611df7806200042a6000396000f3fe608060405234801561001057600080fd5b50600436106101365760003560e01c806354f6127f116100b25780637f23690c11610081578063a3b261f211610066578063a3b261f2146102a0578063cf5182ba146102c0578063f2fde38b146102d357600080fd5b80637f23690c1461027c5780638da5cb5b1461028f57600080fd5b806354f6127f1461022e578063559088681461024e57806370a0823114610261578063715018a61461027457600080fd5b8063217b22701161010957806349a6078d116100ee57806349a6078d146101db5780634e3e6e9c146101fb578063511b69521461021b57600080fd5b8063217b22701461019d5780632a3654a4146101c857600080fd5b806301ffc9a71461013b5780630b0c6d821461016357806314a6e2931461017857806318160ddd1461018b575b600080fd5b61014e6101493660046119c0565b6102e6565b60405190151581526020015b60405180910390f35b6101766101713660046117d5565b61032a565b005b6101766101863660046118e9565b6103d8565b6002545b60405190815260200161015a565b6101b06101ab36600461196a565b6104ac565b6040516001600160a01b03909116815260200161015a565b61014e6101d63660046117d5565b6104e5565b6101ee6101e936600461196a565b610501565b60405161015a9190611b20565b61020e6102093660046118b4565b610523565b60405161015a9190611ba5565b61017661022936600461175a565b6105d7565b61024161023c36600461196a565b61063f565b60405161015a9190611c20565b61017661025c3660046117ff565b61064a565b61018f61026f36600461173f565b610730565b610176610751565b61017661028a366004611983565b610765565b6000546001600160a01b03166101b0565b6102b36102ae36600461173f565b61077b565b60405161015a9190611b6d565b6101766102ce3660046117d5565b61079f565b6101766102e136600461173f565b610897565b60006001600160e01b031982167f493991450000000000000000000000000000000000000000000000000000000014806103245750610324826109e8565b92915050565b6000610335826104ac565b9050336001600160a01b038216811461038057604051632d938f5160e11b81526001600160a01b03808416600483015260248201859052821660448201526064015b60405180910390fd5b6001600160a01b0384166103a757604051639577b8b360e01b815260040160405180910390fd5b836001600160a01b0316826001600160a01b031614156103c75750505050565b6103d2848385610a36565b50505050565b6103e0610a95565b80518251146104575760405162461bcd60e51b815260206004820152602660248201527f4b657973206c656e677468206e6f7420657175616c20746f2076616c7565732060448201527f6c656e67746800000000000000000000000000000000000000000000000000006064820152608401610377565b60005b82518110156104a75761049f83828151811061047857610478611d87565b602002602001015183838151811061049257610492611d87565b6020026020010151610afe565b60010161045a565b505050565b6000818152600360205260408120546001600160a01b03168061032457604051635747cd1b60e11b815260048101849052602401610377565b60006104f082610bbc565b6104fa8383610bf4565b9392505050565b606061050c82610bbc565b600082815260056020526040902061032490610c3d565b6060815167ffffffffffffffff81111561053f5761053f611d9d565b60405190808252806020026020018201604052801561057257816020015b606081526020019060019003908161055d5790505b50905060005b82518110156105d1576105a383828151811061059657610596611d87565b6020026020010151610c4a565b8282815181106105b5576105b5611d87565b60200260200101819052506105ca8160010190565b9050610578565b50919050565b336105e28185610bf4565b61062a576040517f1294d2a9000000000000000000000000000000000000000000000000000000008152600481018590526001600160a01b0382166024820152604401610377565b6106378686868686610cec565b505050505050565b606061032482610c4a565b8351855114158061065d57508251855114155b8061066a57508051855114155b156106a1576040517f93a8311900000000000000000000000000000000000000000000000000000000815260040160405180910390fd5b60005b85518110156106375761071e8682815181106106c2576106c2611d87565b60200260200101518683815181106106dc576106dc611d87565b60200260200101518684815181106106f6576106f6611d87565b60200260200101518686868151811061071157610711611d87565b60200260200101516105d7565b8061072881611d40565b9150506106a4565b6001600160a01b038116600090815260046020526040812061032490610e7e565b610759610a95565b6107636000610927565b565b61076d610a95565b6107778282610afe565b5050565b6001600160a01b038116600090815260046020526040902060609061032490610e88565b60006107aa826104ac565b9050336001600160a01b03821681146107f057604051632d938f5160e11b81526001600160a01b0380841660048301526024820185905282166044820152606401610377565b6001600160a01b03841661081757604051639577b8b360e01b815260040160405180910390fd5b836001600160a01b0316826001600160a01b031614156108375750505050565b600083815260056020526040902061084f9085610e93565b5082826001600160a01b0316856001600160a01b03167f34b797fc5a526f7bf1d2b5de25f6564fd85ae364e3ee939aee7c1ac27871a98860405160405180910390a450505050565b61089f610a95565b6001600160a01b03811661091b5760405162461bcd60e51b815260206004820152602660248201527f4f776e61626c653a206e6577206f776e657220697320746865207a65726f206160448201527f64647265737300000000000000000000000000000000000000000000000000006064820152608401610377565b61092481610927565b50565b6000546001600160a01b0382811691161461092457600080546001600160a01b0383811673ffffffffffffffffffffffffffffffffffffffff19831681178455604051919092169283917f8be0079c531659141344cd1fd0a4f28419497f9722a3daafe3b4186f6b6457e09190a35050565b600082815260016020908152604090912082516109b8928401906114ce565b5060405182907fcdf4e344c0d23d4cdd0474039d176c55b19d531070dbe17856bfb993a5b5720b90600090a25050565b60006001600160e01b031982167f714df77c00000000000000000000000000000000000000000000000000000000148061032457506301ffc9a760e01b6001600160e01b0319831614610324565b6000818152600560205260409020610a4e9084610ea8565b5080826001600160a01b0316846001600160a01b03167f17d5389f6ab6adb2647dfa0aa365c323d37adacc30b33a65310b6158ce1373d560405160405180910390a4505050565b33610aa86000546001600160a01b031690565b6001600160a01b0316146107635760405162461bcd60e51b815260206004820181905260248201527f4f776e61626c653a2063616c6c6572206973206e6f7420746865206f776e65726044820152606401610377565b7fdeba1e292f8ba88238e10ab3c7f88bd4be4fac56cad5194b6ecceaf653468af1821415610b58576040517f85c169bd00000000000000000000000000000000000000000000000000000000815260040160405180910390fd5b7f2f0a68ab07768e01943a599e73362a0e17a63a72e94dd2e384d2c1d4db932756821415610bb2576040517f76755b3800000000000000000000000000000000000000000000000000000000815260040160405180910390fd5b6107778282610999565b6000818152600360205260409020546001600160a01b031661092457604051635747cd1b60e11b815260048101829052602401610377565b600080610c00836104ac565b9050806001600160a01b0316846001600160a01b03161480610c3557506000838152600560205260409020610c359085610ebd565b949350505050565b606060006104fa83610edf565b6000818152600160205260409020805460609190610c6790611d0b565b80601f0160208091040260200160405190810160405280929190818152602001828054610c9390611d0b565b8015610ce05780601f10610cb557610100808354040283529160200191610ce0565b820191906000526020600020905b815481529060010190602001808311610cc357829003601f168201915b50505050509050919050565b6000610cf7846104ac565b9050856001600160a01b0316816001600160a01b031614610d4557604051632d938f5160e11b81526001600160a01b0380831660048301526024820186905287166044820152606401610377565b6001600160a01b038516610d85576040517f24ecef4d00000000000000000000000000000000000000000000000000000000815260040160405180910390fd5b33610d91878787610f3a565b610d9b8786610f8c565b6001600160a01b0387166000908152600460205260409020610dbd9086610fe4565b506001600160a01b0386166000908152600460205260409020610de09086610ff0565b5060008581526003602052604090819020805473ffffffffffffffffffffffffffffffffffffffff19166001600160a01b0389811691821790925591518792918a16907fb333c813a7426a7a11e2b190cad52c44119421594b47f6f32ace6d8c7207b2bf90610e549086908a908a90611af6565b60405180910390a4610e6887878786610ffc565b610e7587878787876110df565b50505050505050565b6000610324825490565b606061032482610edf565b60006104fa836001600160a01b038416611258565b60006104fa836001600160a01b0384166112a7565b6001600160a01b038116600090815260018301602052604081205415156104fa565b606081600001805480602002602001604051908101604052809291908181526020018280548015610ce057602002820191906000526020600020905b815481526020019060010190808311610f1b5750505050509050919050565b6001600160a01b038316610f6157600160026000828254610f5b9190611cb0565b90915550505b6001600160a01b0382166104a757600160026000828254610f829190611cc8565b9091555050505050565b600081815260056020526040812090610fa482610e7e565b905060005b81811015610fdd576000610fbd848261139a565b9050610fca818787610a36565b5080610fd581611d40565b915050610fa9565b5050505050565b60006104fa83836112a7565b60006104fa8383611258565b61100d84631aed5a8560e21b6113a6565b156103d25760008484848460405160200161102b9493929190611a8d565b60408051601f1981840301815290829052631aed5a8560e21b825291506001600160a01b03861690636bb56a1490611089907f3724c94f0815e936299cca424da4140752198e0beb7931a6e0925d11bc97544c908590600401611c07565b600060405180830381600087803b1580156110a357600080fd5b505af11580156110b7573d6000803e3d6000fd5b505050506040513d6000823e601f3d908101601f1916820160405261063791908101906119ea565b6110f084631aed5a8560e21b6113a6565b156111c95760008585858460405160200161110e9493929190611a8d565b60408051601f1981840301815290829052631aed5a8560e21b825291506001600160a01b03861690636bb56a149061116c907fc7a120a42b6057a0cbed111fbbfbd52fcd96748c04394f77fc2c3adbe0391e01908590600401611c07565b600060405180830381600087803b15801561118657600080fd5b505af115801561119a573d6000803e3d6000fd5b505050506040513d6000823e601f3d908101601f191682016040526111c291908101906119ea565b5050610fdd565b81610fdd576001600160a01b0384163b1561121b576040517f4349776d0000000000000000000000000000000000000000000000000000000081526001600160a01b0385166004820152602401610377565b6040517f031731370000000000000000000000000000000000000000000000000000000081526001600160a01b0385166004820152602401610377565b600081815260018301602052604081205461129f57508154600181810184556000848152602080822090930184905584548482528286019093526040902091909155610324565b506000610324565b600081815260018301602052604081205480156113905760006112cb600183611cc8565b85549091506000906112df90600190611cc8565b90508181146113445760008660000182815481106112ff576112ff611d87565b906000526020600020015490508087600001848154811061132257611322611d87565b6000918252602080832090910192909255918252600188019052604090208390555b855486908061135557611355611d71565b600190038181906000526020600020016000905590558560010160008681526020019081526020016000206000905560019350505050610324565b6000915050610324565b60006104fa83836114a4565b604080516001600160e01b0319831660248083019190915282518083039091018152604490910182526020810180517bffffffffffffffffffffffffffffffffffffffffffffffffffffffff166301ffc9a760e01b179052905160009190829081906001600160a01b0387169061753090611422908690611ada565b6000604051808303818686fa925050503d806000811461145e576040519150601f19603f3d011682016040523d82523d6000602084013e611463565b606091505b509150915060208151101561147e5760009350505050610324565b81801561149a57508080602001905181019061149a919061194d565b9695505050505050565b60008260000182815481106114bb576114bb611d87565b9060005260206000200154905092915050565b8280546114da90611d0b565b90600052602060002090601f0160209004810192826114fc5760008555611542565b82601f1061151557805160ff1916838001178555611542565b82800160010185558215611542579182015b82811115611542578251825591602001919060010190611527565b5061154e929150611552565b5090565b5b8082111561154e5760008155600101611553565b80356001600160a01b038116811461157e57600080fd5b919050565b600082601f83011261159457600080fd5b813560206115a96115a483611c64565b611c33565b80838252828201915082860187848660051b89010111156115c957600080fd5b60005b858110156115ef576115dd82611567565b845292840192908401906001016115cc565b5090979650505050505050565b600082601f83011261160d57600080fd5b8135602061161d6115a483611c64565b80838252828201915082860187848660051b890101111561163d57600080fd5b60005b858110156115ef57813584529284019290840190600101611640565b600082601f83011261166d57600080fd5b8135602061167d6115a483611c64565b80838252828201915082860187848660051b890101111561169d57600080fd5b6000805b868110156116e057823567ffffffffffffffff8111156116bf578283fd5b6116cd8b88838d01016116ee565b86525093850193918501916001016116a1565b509198975050505050505050565b600082601f8301126116ff57600080fd5b813561170d6115a482611c88565b81815284602083860101111561172257600080fd5b816020850160208301376000918101602001919091529392505050565b60006020828403121561175157600080fd5b6104fa82611567565b600080600080600060a0868803121561177257600080fd5b61177b86611567565b945061178960208701611567565b93506040860135925060608601356117a081611db3565b9150608086013567ffffffffffffffff8111156117bc57600080fd5b6117c8888289016116ee565b9150509295509295909350565b600080604083850312156117e857600080fd5b6117f183611567565b946020939093013593505050565b600080600080600060a0868803121561181757600080fd5b853567ffffffffffffffff8082111561182f57600080fd5b61183b89838a01611583565b9650602088013591508082111561185157600080fd5b61185d89838a01611583565b9550604088013591508082111561187357600080fd5b61187f89838a016115fc565b94506060880135915061189182611db3565b909250608087013590808211156118a757600080fd5b506117c88882890161165c565b6000602082840312156118c657600080fd5b813567ffffffffffffffff8111156118dd57600080fd5b610c35848285016115fc565b600080604083850312156118fc57600080fd5b823567ffffffffffffffff8082111561191457600080fd5b611920868387016115fc565b9350602085013591508082111561193657600080fd5b506119438582860161165c565b9150509250929050565b60006020828403121561195f57600080fd5b81516104fa81611db3565b60006020828403121561197c57600080fd5b5035919050565b6000806040838503121561199657600080fd5b82359150602083013567ffffffffffffffff8111156119b457600080fd5b611943858286016116ee565b6000602082840312156119d257600080fd5b81356001600160e01b0319811681146104fa57600080fd5b6000602082840312156119fc57600080fd5b815167ffffffffffffffff811115611a1357600080fd5b8201601f81018413611a2457600080fd5b8051611a326115a482611c88565b818152856020838501011115611a4757600080fd5b611a58826020830160208601611cdf565b95945050505050565b60008151808452611a79816020860160208601611cdf565b601f01601f19169290920160200192915050565b60006bffffffffffffffffffffffff19808760601b168352808660601b166014840152508360288301528251611aca816048850160208701611cdf565b9190910160480195945050505050565b60008251611aec818460208701611cdf565b9190910192915050565b6001600160a01b03841681528215156020820152606060408201526000611a586060830184611a61565b6020808252825182820181905260009190848201906040850190845b81811015611b615783516001600160a01b031683529284019291840191600101611b3c565b50909695505050505050565b6020808252825182820181905260009190848201906040850190845b81811015611b6157835183529284019291840191600101611b89565b6000602080830181845280855180835260408601915060408160051b870101925083870160005b82811015611bfa57603f19888603018452611be8858351611a61565b94509285019290850190600101611bcc565b5092979650505050505050565b828152604060208201526000610c356040830184611a61565b6020815260006104fa6020830184611a61565b604051601f8201601f1916810167ffffffffffffffff81118282101715611c5c57611c5c611d9d565b604052919050565b600067ffffffffffffffff821115611c7e57611c7e611d9d565b5060051b60200190565b600067ffffffffffffffff821115611ca257611ca2611d9d565b50601f01601f191660200190565b60008219821115611cc357611cc3611d5b565b500190565b600082821015611cda57611cda611d5b565b500390565b60005b83811015611cfa578181015183820152602001611ce2565b838111156103d25750506000910152565b600181811c90821680611d1f57607f821691505b602082108114156105d157634e487b7160e01b600052602260045260246000fd5b6000600019821415611d5457611d54611d5b565b5060010190565b634e487b7160e01b600052601160045260246000fd5b634e487b7160e01b600052603160045260246000fd5b634e487b7160e01b600052603260045260246000fd5b634e487b7160e01b600052604160045260246000fd5b801515811461092457600080fdfea2646970667358221220d9b07916b689726a88fed161b7af5289d5da340772c6627f7b35aa8a604568fd64736f6c63430008070033",
  "linkReferences": {},
  "deployedLinkReferences": {}
}