{
  "_format": "hh-sol-artifact-1",
  "contractName": "LSP2FetcherWithMulticall3",
  "sourceName": "contracts/LSP2Fetcher.sol",
  "abi": [
    {
      "inputs": [
        {
          "components": [
            {
              "internalType": "address",
              "name": "target",
              "type": "address"
            },
            {
              "internalType": "bytes",
              "name": "callData",
              "type": "bytes"
            }
          ],
          "internalType": "struct LSP2FetcherWithMulticall3.Call[]",
          "name": "calls",
          "type": "tuple[]"
        }
      ],
      "name": "aggregate",
      "outputs": [
        {
          "internalType": "bytes[]",
          "name": "returnData",
          "type": "bytes[]"
        }
      ],
      "stateMutability": "payable",
      "type": "function"
    },
    {
      "inputs": [
        {
          "components": [
            {
              "internalType": "address",
              "name": "target",
              "type": "address"
            },
            {
              "internalType": "bool",
              "name": "allowFailure",
              "type": "bool"
            },
            {
              "internalType": "bytes",
              "name": "callData",
              "type": "bytes"
            }
          ],
          "internalType": "struct LSP2FetcherWithMulticall3.Call3[]",
          "name": "calls",
          "type": "tuple[]"
        }
      ],
      "name": "aggregate3",
      "outputs": [
        {
          "components": [
            {
              "internalType": "bool",
              "name": "success",
              "type": "bool"
            },
            {
              "internalType": "bytes",
              "name": "returnData",
              "type": "bytes"
            }
          ],
          "internalType": "struct LSP2FetcherWithMulticall3.Result[]",
          "name": "returnData",
          "type": "tuple[]"
        }
      ],
      "stateMutability": "payable",
      "type": "function"
    },
    {
      "inputs": [
        {
          "internalType": "bytes[]",
          "name": "data",
          "type": "bytes[]"
        }
      ],
      "name": "batchCalls",
      "outputs": [
        {
          "internalType": "bytes[]",
          "name": "results",
          "type": "bytes[]"
        }
      ],
      "stateMutability": "nonpayable",
      "type": "function"
    },
    {
      "inputs": [
        {
          "internalType": "address",
          "name": "_contract",
          "type": "address"
        },
        {
          "internalType": "bytes32",
          "name": "dataKey",
          "type": "bytes32"
        }
      ],
      "name": "fetchArrayLengthCount",
      "outputs": [
        {
          "internalType": "uint128",
          "name": "",
          "type": "uint128"
        }
      ],
      "stateMutability": "view",
      "type": "function"
    },
    {
      "inputs": [
        {
          "internalType": "address",
          "name": "_contract",
          "type": "address"
        },
        {
          "internalType": "bytes32",
          "name": "dataKey",
          "type": "bytes32"
        }
      ],
      "name": "fetchArrayWithElements",
      "outputs": [
        {
          "internalType": "bytes[]",
          "name": "",
          "type": "bytes[]"
        }
      ],
      "stateMutability": "view",
      "type": "function"
    },
    {
      "inputs": [
        {
          "internalType": "address",
          "name": "_contract",
          "type": "address"
        },
        {
          "internalType": "bytes32",
          "name": "dataKey",
          "type": "bytes32"
        },
        {
          "internalType": "bytes10",
          "name": "mapKeyPrefix",
          "type": "bytes10"
        }
      ],
      "name": "fetchArrayWithMapKeys",
      "outputs": [
        {
          "internalType": "bytes[]",
          "name": "",
          "type": "bytes[]"
        },
        {
          "internalType": "bytes[]",
          "name": "",
          "type": "bytes[]"
        }
      ],
      "stateMutability": "view",
      "type": "function"
    },
    {
      "inputs": [
        {
          "internalType": "address",
          "name": "_contract",
          "type": "address"
        },
        {
          "internalType": "bytes10",
          "name": "dataKeyPrefix",
          "type": "bytes10"
        },
        {
          "internalType": "bytes",
          "name": "element",
          "type": "bytes"
        }
      ],
      "name": "fetchElementMapKey",
      "outputs": [
        {
          "internalType": "bytes",
          "name": "",
          "type": "bytes"
        }
      ],
      "stateMutability": "view",
      "type": "function"
    },
    {
      "inputs": [
        {
          "internalType": "address",
          "name": "_contract",
          "type": "address"
        },
        {
          "internalType": "bytes10",
          "name": "dataKeyPrefix",
          "type": "bytes10"
        },
        {
          "internalType": "bytes[]",
          "name": "elements",
          "type": "bytes[]"
        }
      ],
      "name": "fetchElementMapKeys",
      "outputs": [
        {
          "internalType": "bytes[]",
          "name": "",
          "type": "bytes[]"
        }
      ],
      "stateMutability": "view",
      "type": "function"
    },
    {
      "inputs": [
        {
          "internalType": "address",
          "name": "_contract",
          "type": "address"
        },
        {
          "internalType": "bytes32",
          "name": "dataKey",
          "type": "bytes32"
        },
        {
          "internalType": "uint128",
          "name": "count",
          "type": "uint128"
        }
      ],
      "name": "fetchElements",
      "outputs": [
        {
          "internalType": "bytes[]",
          "name": "",
          "type": "bytes[]"
        }
      ],
      "stateMutability": "view",
      "type": "function"
    },
    {
      "inputs": [
        {
          "internalType": "address",
          "name": "_contract",
          "type": "address"
        }
      ],
      "name": "fetchLSP4ArrayWithMapKeys",
      "outputs": [
        {
          "internalType": "bytes[]",
          "name": "",
          "type": "bytes[]"
        },
        {
          "internalType": "bytes[]",
          "name": "",
          "type": "bytes[]"
        }
      ],
      "stateMutability": "view",
      "type": "function"
    },
    {
      "inputs": [
        {
          "internalType": "address",
          "name": "_contract",
          "type": "address"
        }
      ],
      "name": "fetchLSP5ArrayWithMapKeys",
      "outputs": [
        {
          "internalType": "bytes[]",
          "name": "",
          "type": "bytes[]"
        },
        {
          "internalType": "bytes[]",
          "name": "",
          "type": "bytes[]"
        }
      ],
      "stateMutability": "view",
      "type": "function"
    },
    {
      "inputs": [
        {
          "internalType": "address",
          "name": "_contract",
          "type": "address"
        }
      ],
      "name": "fetchLSP6ArrayWithMapKeys",
      "outputs": [
        {
          "internalType": "bytes[]",
          "name": "",
          "type": "bytes[]"
        },
        {
          "internalType": "bytes[]",
          "name": "",
          "type": "bytes[]"
        }
      ],
      "stateMutability": "view",
      "type": "function"
    },
    {
      "inputs": [],
      "name": "getBasefee",
      "outputs": [
        {
          "internalType": "uint256",
          "name": "basefee",
          "type": "uint256"
        }
      ],
      "stateMutability": "view",
      "type": "function"
    },
    {
      "inputs": [
        {
          "internalType": "uint256",
          "name": "blockNumber",
          "type": "uint256"
        }
      ],
      "name": "getBlockHash",
      "outputs": [
        {
          "internalType": "bytes32",
          "name": "blockHash",
          "type": "bytes32"
        }
      ],
      "stateMutability": "view",
      "type": "function"
    },
    {
      "inputs": [],
      "name": "getBlockNumber",
      "outputs": [
        {
          "internalType": "uint256",
          "name": "blockNumber",
          "type": "uint256"
        }
      ],
      "stateMutability": "view",
      "type": "function"
    },
    {
      "inputs": [],
      "name": "getChainId",
      "outputs": [
        {
          "internalType": "uint256",
          "name": "chainid",
          "type": "uint256"
        }
      ],
      "stateMutability": "view",
      "type": "function"
    },
    {
      "inputs": [],
      "name": "getCurrentBlockCoinbase",
      "outputs": [
        {
          "internalType": "address",
          "name": "coinbase",
          "type": "address"
        }
      ],
      "stateMutability": "view",
      "type": "function"
    },
    {
      "inputs": [],
      "name": "getCurrentBlockDifficulty",
      "outputs": [
        {
          "internalType": "uint256",
          "name": "difficulty",
          "type": "uint256"
        }
      ],
      "stateMutability": "view",
      "type": "function"
    },
    {
      "inputs": [],
      "name": "getCurrentBlockGasLimit",
      "outputs": [
        {
          "internalType": "uint256",
          "name": "gaslimit",
          "type": "uint256"
        }
      ],
      "stateMutability": "view",
      "type": "function"
    },
    {
      "inputs": [],
      "name": "getCurrentBlockTimestamp",
      "outputs": [
        {
          "internalType": "uint256",
          "name": "timestamp",
          "type": "uint256"
        }
      ],
      "stateMutability": "view",
      "type": "function"
    },
    {
      "inputs": [
        {
          "internalType": "address",
          "name": "addr",
          "type": "address"
        }
      ],
      "name": "getEthBalance",
      "outputs": [
        {
          "internalType": "uint256",
          "name": "balance",
          "type": "uint256"
        }
      ],
      "stateMutability": "view",
      "type": "function"
    },
    {
      "inputs": [],
      "name": "getLastBlockHash",
      "outputs": [
        {
          "internalType": "bytes32",
          "name": "blockHash",
          "type": "bytes32"
        }
      ],
      "stateMutability": "view",
      "type": "function"
    },
    {
      "inputs": [
        {
          "internalType": "bool",
          "name": "requireSuccess",
          "type": "bool"
        },
        {
          "components": [
            {
              "internalType": "address",
              "name": "target",
              "type": "address"
            },
            {
              "internalType": "bytes",
              "name": "callData",
              "type": "bytes"
            }
          ],
          "internalType": "struct LSP2FetcherWithMulticall3.Call[]",
          "name": "calls",
          "type": "tuple[]"
        }
      ],
      "name": "tryAggregate",
      "outputs": [
        {
          "components": [
            {
              "internalType": "bool",
              "name": "success",
              "type": "bool"
            },
            {
              "internalType": "bytes",
              "name": "returnData",
              "type": "bytes"
            }
          ],
          "internalType": "struct LSP2FetcherWithMulticall3.Result[]",
          "name": "returnData",
          "type": "tuple[]"
        }
      ],
      "stateMutability": "payable",
      "type": "function"
    }
  ],
  "bytecode": "0x608060405234801561001057600080fd5b50611a22806100206000396000f3fe6080604052600436106101805760003560e01c806372425d9d116100d6578063a8b0574e1161007f578063cc41724c11610059578063cc41724c146103d3578063e5343bab146103f3578063ee82ac5e1461042b57600080fd5b8063a8b0574e14610385578063bbe045bb146103a0578063bce38bd7146103c057600080fd5b806386d516e8116100b057806386d516e814610332578063900362d61461034557806392f731fe1461036557600080fd5b806372425d9d146102df578063829bcd6f146102f257806382ad56cb1461031257600080fd5b80632eca2b8e1161013857806342cbb15c1161011257806342cbb15c146102845780634d2301cc146102975780636963d438146102bf57600080fd5b80632eca2b8e146102305780633408e4701461025e5780633e64a6961461027157600080fd5b80631bd6da3e116101695780631bd6da3e146101d8578063252dba421461020557806327e86d6e1461021857600080fd5b8063088b71e3146101855780630f28c97d146101bb575b600080fd5b34801561019157600080fd5b506101a56101a03660046111b3565b61044a565b6040516101b2919061132f565b60405180910390f35b3480156101c757600080fd5b50425b6040519081526020016101b2565b3480156101e457600080fd5b506101f86101f3366004611349565b6105a4565b6040516101b291906113a7565b6101a561021336600461148e565b61062e565b34801561022457600080fd5b504360001901406101ca565b34801561023c57600080fd5b5061025061024b3660046114c3565b6107bd565b6040516101b29291906114de565b34801561026a57600080fd5b50466101ca565b34801561027d57600080fd5b50486101ca565b34801561029057600080fd5b50436101ca565b3480156102a357600080fd5b506101ca6102b23660046114c3565b6001600160a01b03163190565b3480156102cb57600080fd5b506101a56102da366004611503565b610827565b3480156102eb57600080fd5b50446101ca565b3480156102fe57600080fd5b506101a561030d366004611578565b61098a565b6103256103203660046115d4565b610ac0565b6040516101b291906116db565b34801561033e57600080fd5b50456101ca565b34801561035157600080fd5b506102506103603660046114c3565b610c6d565b34801561037157600080fd5b506101a5610380366004611751565b610ccb565b34801561039157600080fd5b506040514181526020016101b2565b3480156103ac57600080fd5b506102506103bb36600461177b565b610cee565b6103256103ce3660046117b7565b610d1a565b3480156103df57600080fd5b506102506103ee3660046114c3565b610ec5565b3480156103ff57600080fd5b5061041361040e366004611751565b610f23565b6040516001600160801b0390911681526020016101b2565b34801561043757600080fd5b506101ca610446366004611805565b4090565b60606000825167ffffffffffffffff8111156104685761046861107e565b60405190808252806020026020018201604052801561049b57816020015b60608152602001906001900390816104865790505b50905060005b8351816001600160801b0316101561059b5760006104ea8686846001600160801b0316815181106104d4576104d461181e565b60200260200101516104e590611834565b610fa6565b6040516354f6127f60e01b8152600481018290529091506000906001600160a01b038916906354f6127f90602401600060405180830381865afa158015610535573d6000803e3d6000fd5b505050506040513d6000823e601f3d908101601f1916820160405261055d919081019061186c565b90508084846001600160801b03168151811061057b5761057b61181e565b602002602001018190525050508080610593906118da565b9150506104a1565b50949350505050565b606060006105b5846104e585611834565b6040516354f6127f60e01b8152600481018290529091506001600160a01b038616906354f6127f90602401600060405180830381865afa1580156105fd573d6000803e3d6000fd5b505050506040513d6000823e601f3d908101601f19168201604052610625919081019061186c565b95945050505050565b80516060908067ffffffffffffffff81111561064c5761064c61107e565b60405190808252806020026020018201604052801561067f57816020015b606081526020019060019003908161066a5790505b5060408051808201909152600081526060602082015290925060005b828110156107b55760008582815181106106b7576106b761181e565b602090810291909101015180519093506001600160a01b03166106d8573083525b82600001516001600160a01b031683602001516040516106f8919061190e565b6000604051808303816000865af19150503d8060008114610735576040519150601f19603f3d011682016040523d82523d6000602084013e61073a565b606091505b5086848151811061074d5761074d61181e565b60209081029190910101529050806107ac5760405162461bcd60e51b815260206004820152601760248201527f4d756c746963616c6c333a2063616c6c206661696c656400000000000000000060448201526064015b60405180910390fd5b5060010161069b565b505050919050565b60608060006107ec847f6460ee3c0aac563ccbf76d6e1d07bada78e3a9514e6382b736ed3f478ab7b90b610ccb565b9050600061081b857f812c4334633eb816c80d000000000000000000000000000000000000000000008461044a565b91959194509092505050565b60608167ffffffffffffffff8111156108425761084261107e565b60405190808252806020026020018201604052801561087557816020015b60608152602001906001900390816108605790505b50905060005b8281101561098357600080308686858181106108995761089961181e565b90506020028101906108ab919061192a565b6040516108b9929190611978565b600060405180830381855af49150503d80600081146108f4576040519150601f19603f3d011682016040523d82523d6000602084013e6108f9565b606091505b50915091508161095b578051156109135780518082602001fd5b60405162461bcd60e51b815260206004820181905260248201527f4c535032466574636865723a20626174636843616c6c7320726576657274656460448201526064016107a3565b8084848151811061096e5761096e61181e565b6020908102919091010152505060010161087b565b5092915050565b60606000826001600160801b031667ffffffffffffffff8111156109b0576109b061107e565b6040519080825280602002602001820160405280156109e357816020015b60608152602001906001900390816109ce5790505b50905060005b836001600160801b0316816001600160801b0316101561059b576000610a0f8683611007565b6040516354f6127f60e01b8152600481018290529091506000906001600160a01b038916906354f6127f90602401600060405180830381865afa158015610a5a573d6000803e3d6000fd5b505050506040513d6000823e601f3d908101601f19168201604052610a82919081019061186c565b90508084846001600160801b031681518110610aa057610aa061181e565b602002602001018190525050508080610ab8906118da565b9150506109e9565b80516060908067ffffffffffffffff811115610ade57610ade61107e565b604051908082528060200260200182016040528015610b2457816020015b604080518082019091526000815260606020820152815260200190600190039081610afc5790505b506040805160608082018352600080835260208301819052928201529193505b828110156107b5576000848281518110610b6057610b6061181e565b60200260200101519050858281518110610b7c57610b7c61181e565b602090810291909101015180519093506001600160a01b0316610b9d573083525b82600001516001600160a01b03168360400151604051610bbd919061190e565b6000604051808303816000865af19150503d8060008114610bfa576040519150601f19603f3d011682016040523d82523d6000602084013e610bff565b606091505b50602080840191909152901515825283015115610c64578051610c645760405162461bcd60e51b815260206004820152601760248201527f4d756c746963616c6c333a2063616c6c206661696c656400000000000000000060448201526064016107a3565b50600101610b44565b6060806000610c9c847fdf30dba06db6a30e65354d9a64c609861f089545ca58c6b4dbe31a5f338cb0e3610ccb565b9050600061081b857f4b80742de2bf82acb363000000000000000000000000000000000000000000008461044a565b60606000610cd98484610f23565b9050610ce684848361098a565b949350505050565b6060806000610cfd8686610ccb565b90506000610d0c87868461044a565b919791965090945050505050565b80516060908067ffffffffffffffff811115610d3857610d3861107e565b604051908082528060200260200182016040528015610d7e57816020015b604080518082019091526000815260606020820152815260200190600190039081610d565790505b5060408051808201909152600081526060602082015290925060005b82811015610ebc576000848281518110610db657610db661181e565b60200260200101519050858281518110610dd257610dd261181e565b602090810291909101015180519093506001600160a01b0316610df3573083525b82600001516001600160a01b03168360200151604051610e13919061190e565b6000604051808303816000865af19150503d8060008114610e50576040519150601f19603f3d011682016040523d82523d6000602084013e610e55565b606091505b506020830152151581528615610eb3578051610eb35760405162461bcd60e51b815260206004820152601760248201527f4d756c746963616c6c333a2063616c6c206661696c656400000000000000000060448201526064016107a3565b50600101610d9a565b50505092915050565b6060806000610ef4847f114bd03b3a46d48759680d81ebb2b414fda7d030a7105a851867accf1c2352e7610ccb565b9050600061081b857f6de85eaf5d982b4e5da0000000000000000000000000000000000000000000008461044a565b6040516354f6127f60e01b8152600481018290526000906001600160a01b038416906354f6127f90602401600060405180830381865afa158015610f6b573d6000803e3d6000fd5b505050506040513d6000823e601f3d908101601f19168201604052610f93919081019061186c565b610f9c90611988565b60801c9392505050565b6040805175ffffffffffffffffffffffffffffffffffffffffffff19841660208201526000602a82018190526bffffffffffffffffffffffff198416602c830152918291015b604051602081830303815290604052905080610ce6906119c5565b604080516fffffffffffffffffffffffffffffffff198085166020830152608084901b166030820152600091829101610fec565b80356001600160a01b038116811461105257600080fd5b919050565b803575ffffffffffffffffffffffffffffffffffffffffffff198116811461105257600080fd5b634e487b7160e01b600052604160045260246000fd5b6040805190810167ffffffffffffffff811182821017156110b7576110b761107e565b60405290565b6040516060810167ffffffffffffffff811182821017156110b7576110b761107e565b604051601f8201601f1916810167ffffffffffffffff811182821017156111095761110961107e565b604052919050565b600067ffffffffffffffff82111561112b5761112b61107e565b5060051b60200190565b600067ffffffffffffffff82111561114f5761114f61107e565b50601f01601f191660200190565b600082601f83011261116e57600080fd5b813561118161117c82611135565b6110e0565b81815284602083860101111561119657600080fd5b816020850160208301376000918101602001919091529392505050565b6000806000606084860312156111c857600080fd5b6111d18461103b565b925060206111e0818601611057565b9250604085013567ffffffffffffffff808211156111fd57600080fd5b818701915087601f83011261121157600080fd5b813561121f61117c82611111565b81815260059190911b8301840190848101908a83111561123e57600080fd5b8585015b838110156112765780358581111561125a5760008081fd5b6112688d89838a010161115d565b845250918601918601611242565b508096505050505050509250925092565b60005b838110156112a257818101518382015260200161128a565b50506000910152565b600081518084526112c3816020860160208601611287565b601f01601f19169290920160200192915050565b600082825180855260208086019550808260051b84010181860160005b8481101561132257601f198684030189526113108383516112ab565b988401989250908301906001016112f4565b5090979650505050505050565b60208152600061134260208301846112d7565b9392505050565b60008060006060848603121561135e57600080fd5b6113678461103b565b925061137560208501611057565b9150604084013567ffffffffffffffff81111561139157600080fd5b61139d8682870161115d565b9150509250925092565b60208152600061134260208301846112ab565b600082601f8301126113cb57600080fd5b813560206113db61117c83611111565b82815260059290921b840181019181810190868411156113fa57600080fd5b8286015b8481101561148357803567ffffffffffffffff8082111561141f5760008081fd5b908801906040828b03601f19018113156114395760008081fd5b611441611094565b61144c88850161103b565b81529083013590828211156114615760008081fd5b61146f8c898487010161115d565b8189015286525050509183019183016113fe565b509695505050505050565b6000602082840312156114a057600080fd5b813567ffffffffffffffff8111156114b757600080fd5b610ce6848285016113ba565b6000602082840312156114d557600080fd5b6113428261103b565b6040815260006114f160408301856112d7565b828103602084015261062581856112d7565b6000806020838503121561151657600080fd5b823567ffffffffffffffff8082111561152e57600080fd5b818501915085601f83011261154257600080fd5b81358181111561155157600080fd5b8660208260051b850101111561156657600080fd5b60209290920196919550909350505050565b60008060006060848603121561158d57600080fd5b6115968461103b565b92506020840135915060408401356001600160801b03811681146115b957600080fd5b809150509250925092565b8035801515811461105257600080fd5b600060208083850312156115e757600080fd5b823567ffffffffffffffff808211156115ff57600080fd5b818501915085601f83011261161357600080fd5b813561162161117c82611111565b81815260059190911b8301840190848101908883111561164057600080fd5b8585015b838110156116ce5780358581111561165c5760008081fd5b86016060818c03601f19018113156116745760008081fd5b61167c6110bd565b6116878a840161103b565b815260406116968185016115c4565b828c01529183013591888311156116ad5760008081fd5b6116bb8e8c8587010161115d565b9082015285525050918601918601611644565b5098975050505050505050565b60006020808301818452808551808352604092508286019150828160051b87010184880160005b8381101561174357888303603f190185528151805115158452870151878401879052611730878501826112ab565b9588019593505090860190600101611702565b509098975050505050505050565b6000806040838503121561176457600080fd5b61176d8361103b565b946020939093013593505050565b60008060006060848603121561179057600080fd5b6117998461103b565b9250602084013591506117ae60408501611057565b90509250925092565b600080604083850312156117ca57600080fd5b6117d3836115c4565b9150602083013567ffffffffffffffff8111156117ef57600080fd5b6117fb858286016113ba565b9150509250929050565b60006020828403121561181757600080fd5b5035919050565b634e487b7160e01b600052603260045260246000fd5b805160208201516bffffffffffffffffffffffff1980821692919060148310156107b55760149290920360031b82901b161692915050565b60006020828403121561187e57600080fd5b815167ffffffffffffffff81111561189557600080fd5b8201601f810184136118a657600080fd5b80516118b461117c82611135565b8181528560208385010111156118c957600080fd5b610625826020830160208601611287565b60006001600160801b0380831681810361190457634e487b7160e01b600052601160045260246000fd5b6001019392505050565b60008251611920818460208701611287565b9190910192915050565b6000808335601e1984360301811261194157600080fd5b83018035915067ffffffffffffffff82111561195c57600080fd5b60200191503681900382131561197157600080fd5b9250929050565b8183823760009101908152919050565b6000815160208301516fffffffffffffffffffffffffffffffff19808216935060108310156107b55760109290920360031b82901b161692915050565b805160208083015191908110156119e6576000198160200360031b1b821691505b5091905056fea26469706673582212207095dee64ea15f8b5fefeb82f2023bc5c5a31fb36d5ac92d9edab0c4edf46ad464736f6c63430008110033",
  "linkReferences": {},
  "deployedLinkReferences": {}
}